{
  "abi": [
    {
      "inputs": [],
      "stateMutability": "nonpayable",
      "type": "constructor"
    },
    {
      "inputs": [
        {
          "internalType": "bytes32",
          "name": "participant",
          "type": "bytes32"
        },
        {
          "internalType": "address",
          "name": "sender",
          "type": "address"
        },
        {
          "internalType": "address",
          "name": "recipient",
          "type": "address"
        }
      ],
      "name": "Messanger__SecretKeyAlreadyInitialized",
      "type": "error"
    },
    {
      "inputs": [
        {
          "internalType": "bytes32",
          "name": "participant",
          "type": "bytes32"
        },
        {
          "internalType": "address",
          "name": "sender",
          "type": "address"
        },
        {
          "internalType": "address",
          "name": "recipient",
          "type": "address"
        }
      ],
      "name": "Messanger__SecretKeyNotInitialized",
      "type": "error"
    },
    {
      "anonymous": false,
      "inputs": [
        {
          "indexed": true,
          "internalType": "address",
          "name": "sender",
          "type": "address"
        },
        {
          "indexed": true,
          "internalType": "address",
          "name": "recipient",
          "type": "address"
        },
        {
          "indexed": false,
          "internalType": "bytes",
          "name": "content",
          "type": "bytes"
        },
        {
          "indexed": true,
          "internalType": "uint256",
          "name": "timestamp",
          "type": "uint256"
        }
      ],
      "name": "MessageSent",
      "type": "event"
    },
    {
      "anonymous": false,
      "inputs": [
        {
          "indexed": true,
          "internalType": "address",
          "name": "user",
          "type": "address"
        },
        {
          "indexed": true,
          "internalType": "bytes32",
          "name": "publicKeyHalf1",
          "type": "bytes32"
        },
        {
          "indexed": true,
          "internalType": "bytes32",
          "name": "publicKeyHalf2",
          "type": "bytes32"
        }
      ],
      "name": "PublicKeyAdded",
      "type": "event"
    },
    {
      "inputs": [
        {
          "internalType": "address",
          "name": "_recipient",
          "type": "address"
        },
        {
          "internalType": "bytes",
          "name": "senderEncryptedSecretKey",
          "type": "bytes"
        },
        {
          "internalType": "bytes",
          "name": "recipientEncryptedSecretKey",
          "type": "bytes"
        }
      ],
      "name": "addEncryptedSecretKeys",
      "outputs": [],
      "stateMutability": "nonpayable",
      "type": "function"
    },
    {
      "inputs": [
        {
          "internalType": "bytes32",
          "name": "publicKeyHalf1",
          "type": "bytes32"
        },
        {
          "internalType": "bytes32",
          "name": "publicKeyHalf2",
          "type": "bytes32"
        }
      ],
      "name": "addPublicKey",
      "outputs": [],
      "stateMutability": "nonpayable",
      "type": "function"
    },
    {
      "inputs": [
        {
          "internalType": "address",
          "name": "_recipient",
          "type": "address"
        }
      ],
      "name": "getEncryptedSecretKey",
      "outputs": [
        {
          "internalType": "bytes",
          "name": "",
          "type": "bytes"
        }
      ],
      "stateMutability": "view",
      "type": "function"
    },
    {
      "inputs": [
        {
          "internalType": "address",
          "name": "_sender",
          "type": "address"
        },
        {
          "internalType": "address",
          "name": "_recipient",
          "type": "address"
        }
      ],
      "name": "getMessages",
      "outputs": [
        {
          "internalType": "bytes[]",
          "name": "",
          "type": "bytes[]"
        }
      ],
      "stateMutability": "view",
      "type": "function"
    },
    {
      "inputs": [
        {
          "internalType": "address",
          "name": "_userAddress",
          "type": "address"
        }
      ],
      "name": "getPublicKey",
      "outputs": [
        {
          "internalType": "bytes32",
          "name": "",
          "type": "bytes32"
        },
        {
          "internalType": "bytes32",
          "name": "",
          "type": "bytes32"
        }
      ],
      "stateMutability": "view",
      "type": "function"
    },
    {
      "inputs": [
        {
          "internalType": "address",
          "name": "user",
          "type": "address"
        }
      ],
      "name": "s_addressToPublicKey",
      "outputs": [
        {
          "internalType": "bytes32",
          "name": "half1",
          "type": "bytes32"
        },
        {
          "internalType": "bytes32",
          "name": "half2",
          "type": "bytes32"
        }
      ],
      "stateMutability": "view",
      "type": "function"
    },
    {
      "inputs": [
        {
          "internalType": "bytes32",
          "name": "participants",
          "type": "bytes32"
        }
      ],
      "name": "s_participantsToEncryptedSk",
      "outputs": [
        {
          "internalType": "bytes",
          "name": "lowerAddressSk",
          "type": "bytes"
        },
        {
          "internalType": "bytes",
          "name": "higherAddressSk",
          "type": "bytes"
        }
      ],
      "stateMutability": "view",
      "type": "function"
    },
    {
      "inputs": [
        {
          "internalType": "address",
          "name": "sender",
          "type": "address"
        },
        {
          "internalType": "address",
          "name": "recipient",
          "type": "address"
        },
        {
          "internalType": "uint256",
          "name": "",
          "type": "uint256"
        }
      ],
      "name": "s_senderToRecipientMessages",
      "outputs": [
        {
          "internalType": "bytes",
          "name": "messages",
          "type": "bytes"
        }
      ],
      "stateMutability": "view",
      "type": "function"
    },
    {
      "inputs": [
        {
          "internalType": "address",
          "name": "_recipient",
          "type": "address"
        },
        {
          "internalType": "bytes",
          "name": "message",
          "type": "bytes"
        }
      ],
      "name": "sendMessage",
      "outputs": [],
      "stateMutability": "nonpayable",
      "type": "function"
    }
  ],
  "bytecode": {
    "object": "0x60806040523480156200001157600080fd5b5060408051600580825260c08201909252600091816020015b60408051808201909152600080825260208201528152602001906001900390816200002a5790505090507fac0974bec39a17e36ba4a6b4d238ff944bacb478cbed5efcae784d7bf4f2ff80816000815181106200008b576200008b62000529565b6020026020010151600001818152505073f39fd6e51aad88f6f4ce6ab8827279cfffb9226681600081518110620000c657620000c662000529565b6020026020010151602001906001600160a01b031690816001600160a01b0316815250507f59c6995e998f97a5a0044966f0945389dc9e86dae88c7a8412f4603b6b78690d8160018151811062000121576200012162000529565b602002602001015160000181815250507370997970c51812dc3a010c7d01b50e0d17dc79c8816001815181106200015c576200015c62000529565b6020026020010151602001906001600160a01b031690816001600160a01b0316815250507f5de4111afa1a4b94908f83103eb1f1706367c2e68ca870fc3fb9a804cdab365a81600281518110620001b757620001b762000529565b60200260200101516000018181525050733c44cdddb6a900fa2b585dd299e03d12fa4293bc81600281518110620001f257620001f262000529565b6020026020010151602001906001600160a01b031690816001600160a01b0316815250507f7c852118294e51e653712a81e05800f419141751be58f605c371e15141b007a6816003815181106200024d576200024d62000529565b602002602001015160000181815250507390f79bf6eb2c4f870365e785982e1f101e93b9068160038151811062000288576200028862000529565b6020026020010151602001906001600160a01b031690816001600160a01b0316815250507f47e179ec197488593b187f80a00eb0da91f1b9d0b13f8733639f19c30a34926a81600481518110620002e357620002e362000529565b602002602001015160000181815250507315d34aaf54267db7d7c367839aaf71a00a2c6a65816004815181106200031e576200031e62000529565b6020026020010151602001906001600160a01b031690816001600160a01b031681525050600060405162000352906200051b565b604051809103906000f0801580156200036f573d6000803e3d6000fd5b50905060005b8251811015620004a257600080836001600160a01b0316638940aebe868581518110620003a657620003a662000529565b6020026020010151600001516040518263ffffffff1660e01b8152600401620003d191815260200190565b6040805180830381865afa158015620003ee573d6000803e3d6000fd5b505050506040513d601f19601f820116820180604052508101906200041491906200053f565b909250905081816200042682620004ab565b6200043181620004ab565b6040518060400160405280838152602001828152506000808988815181106200045e576200045e62000529565b6020908102919091018101518101516001600160a01b0316825281810192909252604001600020825181559101516001918201559490940193506200037592505050565b50505062000564565b620004f781604051602401620004c391815260200190565b60408051601f198184030181529190526020810180516001600160e01b039081166327b7cf8560e01b17909152620004fa16565b50565b80516a636f6e736f6c652e6c6f67602083016000808483855afa5050505050565b61072d80620015ce83390190565b634e487b7160e01b600052603260045260246000fd5b600080604083850312156200055357600080fd5b505080516020909101519092909150565b61105a80620005746000396000f3fe608060405234801561001057600080fd5b50600436106100935760003560e01c80637870fb4a116100665780637870fb4a14610133578063810b917814610146578063857cdbb814610159578063aa3ef80e1461019d578063bb5ddb0f146101bd57600080fd5b806311d51e311461009857806315cb3ffb146100c25780633882b55d146100fe578063402e0f5314610113575b600080fd5b6100ab6100a6366004610a4a565b6101d0565b6040516100b9929190610ab3565b60405180910390f35b6100e96100d0366004610afd565b6000602081905290815260409020805460019091015482565b604080519283526020830191909152016100b9565b61011161010c366004610b61565b6102fc565b005b610126610121366004610be2565b610422565b6040516100b99190610c1e565b610126610141366004610afd565b6104e8565b610111610154366004610c31565b61060e565b6100e9610167366004610afd565b6001600160a01b031660009081526020818152604091829020825180840190935280548084526001909101549290910182905291565b6101b06101ab366004610c53565b61066d565b6040516100b99190610c86565b6101116101cb366004610d00565b610769565b6002602052600090815260409020805481906101eb90610dc2565b80601f016020809104026020016040519081016040528092919081815260200182805461021790610dc2565b80156102645780601f1061023957610100808354040283529160200191610264565b820191906000526020600020905b81548152906001019060200180831161024757829003601f168201915b50505050509080600101805461027990610dc2565b80601f01602080910402602001604051908101604052809291908181526020018280546102a590610dc2565b80156102f25780601f106102c7576101008083540402835291602001916102f2565b820191906000526020600020905b8154815290600101906020018083116102d557829003601f168201915b5050505050905082565b6000806001600160a01b0387163310610316578633610319565b33875b9150915060008282604051602001610332929190610dfc565b60405160208183030381529060405280519060200120905060006103558261088d565b905080156103935760405163c3701ac960e01b8152600481018390523360248201526001600160a01b038a1660448201526064015b60405180910390fd5b6001600160a01b03841633036103df5760008281526002602052604090206103bc888a83610e74565b5060008281526002602052604090206001016103d9868883610e74565b50610417565b60008281526002602052604090206103f8868883610e74565b506000828152600260205260409020600101610415888a83610e74565b505b505050505050505050565b6001602052826000526040600020602052816000526040600020818154811061044a57600080fd5b906000526020600020016000925092505050805461046790610dc2565b80601f016020809104026020016040519081016040528092919081815260200182805461049390610dc2565b80156104e05780601f106104b5576101008083540402835291602001916104e0565b820191906000526020600020905b8154815290600101906020018083116104c357829003601f168201915b505050505081565b60606000806001600160a01b0384163310610504578333610507565b33845b9150915060008282604051602001610520929190610dfc565b604051602081830303815290604052805190602001209050826001600160a01b0316336001600160a01b0316036105f2576000818152600260205260409020805461056a90610dc2565b80601f016020809104026020016040519081016040528092919081815260200182805461059690610dc2565b80156105e35780601f106105b8576101008083540402835291602001916105e3565b820191906000526020600020905b8154815290600101906020018083116105c657829003601f168201915b50505050509350505050919050565b6000818152600260205260409020600101805461056a90610dc2565b604080518082018252838152602080820184815233600081815292839052848320935184559051600190930192909255915183928592917fc2a341a2bb1dcd60784059fbc0ded52c4f1f80590d86fade2b7618772188b7fa9190a45050565b6001600160a01b0380831660009081526001602090815260408083209385168352928152828220805484518184028101840190955280855260609493919290919084015b8282101561075d5783829060005260206000200180546106d090610dc2565b80601f01602080910402602001604051908101604052809291908181526020018280546106fc90610dc2565b80156107495780601f1061071e57610100808354040283529160200191610749565b820191906000526020600020905b81548152906001019060200180831161072c57829003601f168201915b5050505050815260200190600101906106b1565b50505050905092915050565b600061077533846109eb565b505090506107828161088d565b6107b757604051632f30221760e21b8152600481018290523360248201526001600160a01b038416604482015260640161038a565b604080514260e01b6001600160e01b031916602082015281516004818303018152602482019092526107ef9084908390604401610f35565b60408051601f19818403018152918152336000908152600160208181528383206001600160a01b038a16845281529282208054918201815582529190209194500161083a8482610f64565b5042846001600160a01b0316336001600160a01b03167ffa9d208f16e4eb5fe2b7dacc89dc18b12c13d9165e656c551c83441eadf5b1a28660405161087f9190610c1e565b60405180910390a450505050565b6000818152600260205260408082208151808301909252805483929190829082906108b790610dc2565b80601f01602080910402602001604051908101604052809291908181526020018280546108e390610dc2565b80156109305780601f1061090557610100808354040283529160200191610930565b820191906000526020600020905b81548152906001019060200180831161091357829003601f168201915b5050505050815260200160018201805461094990610dc2565b80601f016020809104026020016040519081016040528092919081815260200182805461097590610dc2565b80156109c25780601f10610997576101008083540402835291602001916109c2565b820191906000526020600020905b8154815290600101906020018083116109a557829003601f168201915b50505091909252505081515191925050158015906109e4575060208101515115155b9392505050565b6000806000836001600160a01b0316856001600160a01b031610610a10578385610a13565b84845b6040519193509150610a2b9083908390602001610dfc565b6040516020818303038152906040528051906020012092509250925092565b600060208284031215610a5c57600080fd5b5035919050565b60005b83811015610a7e578181015183820152602001610a66565b50506000910152565b60008151808452610a9f816020860160208601610a63565b601f01601f19169290920160200192915050565b604081526000610ac66040830185610a87565b8281036020840152610ad88185610a87565b95945050505050565b80356001600160a01b0381168114610af857600080fd5b919050565b600060208284031215610b0f57600080fd5b6109e482610ae1565b60008083601f840112610b2a57600080fd5b50813567ffffffffffffffff811115610b4257600080fd5b602083019150836020828501011115610b5a57600080fd5b9250929050565b600080600080600060608688031215610b7957600080fd5b610b8286610ae1565b9450602086013567ffffffffffffffff80821115610b9f57600080fd5b610bab89838a01610b18565b90965094506040880135915080821115610bc457600080fd5b50610bd188828901610b18565b969995985093965092949392505050565b600080600060608486031215610bf757600080fd5b610c0084610ae1565b9250610c0e60208501610ae1565b9150604084013590509250925092565b6020815260006109e46020830184610a87565b60008060408385031215610c4457600080fd5b50508035926020909101359150565b60008060408385031215610c6657600080fd5b610c6f83610ae1565b9150610c7d60208401610ae1565b90509250929050565b600060208083016020845280855180835260408601915060408160051b87010192506020870160005b82811015610cdd57603f19888603018452610ccb858351610a87565b94509285019290850190600101610caf565b5092979650505050505050565b634e487b7160e01b600052604160045260246000fd5b60008060408385031215610d1357600080fd5b610d1c83610ae1565b9150602083013567ffffffffffffffff80821115610d3957600080fd5b818501915085601f830112610d4d57600080fd5b813581811115610d5f57610d5f610cea565b604051601f8201601f19908116603f01168101908382118183101715610d8757610d87610cea565b81604052828152886020848701011115610da057600080fd5b8260208601602083013760006020848301015280955050505050509250929050565b600181811c90821680610dd657607f821691505b602082108103610df657634e487b7160e01b600052602260045260246000fd5b50919050565b6bffffffffffffffffffffffff19606093841b811682529190921b16601482015260280190565b601f821115610e6f576000816000526020600020601f850160051c81016020861015610e4c5750805b601f850160051c820191505b81811015610e6b57828155600101610e58565b5050505b505050565b67ffffffffffffffff831115610e8c57610e8c610cea565b610ea083610e9a8354610dc2565b83610e23565b6000601f841160018114610ed45760008515610ebc5750838201355b600019600387901b1c1916600186901b178355610f2e565b600083815260209020601f19861690835b82811015610f055786850135825560209485019460019092019101610ee5565b5086821015610f225760001960f88860031b161c19848701351681555b505060018560011b0183555b5050505050565b60008351610f47818460208801610a63565b835190830190610f5b818360208801610a63565b01949350505050565b815167ffffffffffffffff811115610f7e57610f7e610cea565b610f9281610f8c8454610dc2565b84610e23565b602080601f831160018114610fc75760008415610faf5750858301515b600019600386901b1c1916600185901b178555610e6b565b600085815260208120601f198616915b82811015610ff657888601518255948401946001909101908401610fd7565b50858210156110145787850151600019600388901b60f8161c191681555b5050505050600190811b0190555056fea264697066735822122041df37776712c2c87f276cf883c7629d25a729bdc54d30210d22ba7863975d0964736f6c63430008170033608060405234801561001057600080fd5b5061070d806100206000396000f3fe608060405234801561001057600080fd5b506004361061009e5760003560e01c80638cecf66e116100665780638cecf66e1461011c578063913f424c1461013d578063db3188331461016b578063e241c1d91461017e578063f47289e11461019157600080fd5b80630138e31b146100a35780631ecfe64d146100d05780635b764811146100e35780635f972df8146100f65780638940aebe14610109575b600080fd5b6100b66100b13660046105b5565b6101a4565b604080519283526020830191909152015b60405180910390f35b6100b66100de3660046105b5565b6101d6565b6100b66100f13660046105b5565b6101ff565b6100b66101043660046105b5565b610218565b6100b66101173660046105e7565b61023c565b61012f61012a3660046105e7565b6102c3565b6040519081526020016100c7565b61015061014b3660046105b5565b610331565b604080519384526020840192909252908201526060016100c7565b610150610179366004610600565b6103ba565b6100b661018c366004610643565b610549565b61015061019f366004610643565b610593565b6000806401000003d019808686096401000003d0195b888609086401000003d0195b8487099097909650945050505050565b6000806401000003d01980866101f2876401000003d019610685565b096401000003d0196101ba565b6000806401000003d0198487096401000003d0196101c6565b6000806401000003d0198387096401000003d0198587099097909650945050505050565b6000806000806000610291867f79be667ef9dcbbac55a06295ce870b07029bfcdb2dce28d959f2815b16f817987f483ada7726a3c4655da4fbfc0e1108a8fd17b448a68554199c47d08ffb10d4b86001610331565b919450925090506102a1816102c3565b90506401000003d01981840994506401000003d0198183099350505050915091565b60008060016401000003d01984835b8115610326576102e2828461069e565b9050836401000003d01980868409610300906401000003d019610685565b870890955093508161031281836106c0565b61031c9085610685565b90935091506102d2565b509295945050505050565b60008080868686868480600186820361035b576000806001995099509950505050505050506103b0565b86156103a4576001871615610380576103788383838989896103ba565b919450925090505b61038b60028861069e565b9650610398868686610593565b9197509550935061035b565b91985096509450505050505b9450945094915050565b60008080808080808c1580156103ce57508b155b156103e5578989899650965096505050505061053d565b891580156103f1575088155b15610408578c8c8c9650965096505050505061053d565b898d1480156104165750888c145b1561046a576104278d8c8f8e6101ff565b909450925061043a8484600360016101ff565b909450925061044d8484600060016101a4565b90945092506104608c8c600260016101ff565b909250905061048d565b61047689898e8e6101d6565b90945092506104878a898f8e6101d6565b90925090505b61049984848484610218565b90945092506104aa848481816101ff565b90975091506104bb87838f8e6101d6565b90975091506104cc87838c8b6101d6565b90975091506104dd8d8c89856101d6565b90965090506104ee868286866101ff565b90965090506104ff86828e8e6101d6565b9096509050818114610534576401000003d01981880996506401000003d01982870995506401000003d0198183099450610538565b8194505b505050505b96509650969350505050565b600080600080600061055e8888886001610331565b9194509250905061056e816102c3565b90506401000003d01981840994506401000003d0198183099350505050935093915050565b60008060006105a68686868989896103ba565b91989097509095509350505050565b600080600080608085870312156105cb57600080fd5b5050823594602084013594506040840135936060013592509050565b6000602082840312156105f957600080fd5b5035919050565b60008060008060008060c0878903121561061957600080fd5b505084359660208601359650604086013595606081013595506080810135945060a0013592509050565b60008060006060848603121561065857600080fd5b505081359360208301359350604090920135919050565b634e487b7160e01b600052601160045260246000fd5b818103818111156106985761069861066f565b92915050565b6000826106bb57634e487b7160e01b600052601260045260246000fd5b500490565b80820281158282048414176106985761069861066f56fea264697066735822122013747d009935f6da6d6ee76bd5f3bcac15a2244f75ca13d8485a8b84d030c2f264736f6c63430008170033",
    "linkReferences": {}
  },
  "methodIdentifiers": {
    "addEncryptedSecretKeys(address,bytes,bytes)": "3882b55d",
    "addPublicKey(bytes32,bytes32)": "810b9178",
    "getEncryptedSecretKey(address)": "7870fb4a",
    "getMessages(address,address)": "aa3ef80e",
    "getPublicKey(address)": "857cdbb8",
    "s_addressToPublicKey(address)": "15cb3ffb",
    "s_participantsToEncryptedSk(bytes32)": "11d51e31",
    "s_senderToRecipientMessages(address,address,uint256)": "402e0f53",
    "sendMessage(address,bytes)": "bb5ddb0f"
  },
  "id": 15
}